{
  "_format": "hh3-artifact-1",
  "contractName": "VeritasTrust",
  "sourceName": "contracts/VeritasTrust.sol",
  "abi": [
    {
      "anonymous": false,
      "inputs": [
        {
          "indexed": true,
          "internalType": "address",
          "name": "user",
          "type": "address"
        },
        {
          "indexed": false,
          "internalType": "uint256",
          "name": "score",
          "type": "uint256"
        }
      ],
      "name": "TrustScoreUpdated",
      "type": "event"
    },
    {
      "anonymous": false,
      "inputs": [
        {
          "indexed": true,
          "internalType": "address",
          "name": "user",
          "type": "address"
        }
      ],
      "name": "UserVerified",
      "type": "event"
    },
    {
      "inputs": [
        {
          "internalType": "address",
          "name": "user",
          "type": "address"
        },
        {
          "internalType": "uint256",
          "name": "score",
          "type": "uint256"
        }
      ],
      "name": "setTrustScore",
      "outputs": [],
      "stateMutability": "nonpayable",
      "type": "function"
    },
    {
      "inputs": [
        {
          "internalType": "address",
          "name": "user",
          "type": "address"
        },
        {
          "internalType": "bool",
          "name": "verified",
          "type": "bool"
        }
      ],
      "name": "setVerified",
      "outputs": [],
      "stateMutability": "nonpayable",
      "type": "function"
    },
    {
      "inputs": [
        {
          "internalType": "address",
          "name": "",
          "type": "address"
        }
      ],
      "name": "trustScore",
      "outputs": [
        {
          "internalType": "uint256",
          "name": "",
          "type": "uint256"
        }
      ],
      "stateMutability": "view",
      "type": "function"
    },
    {
      "inputs": [
        {
          "internalType": "address",
          "name": "",
          "type": "address"
        }
      ],
      "name": "verifiedUsers",
      "outputs": [
        {
          "internalType": "bool",
          "name": "",
          "type": "bool"
        }
      ],
      "stateMutability": "view",
      "type": "function"
    }
  ],
  "bytecode": "0x608060405234801561000f575f80fd5b506104f48061001d5f395ff3fe608060405234801561000f575f80fd5b506004361061004a575f3560e01c8063534a84651461004e5780639cf5c6131461007e578063e35fe3661461009a578063feec4758146100ca575b5f80fd5b610068600480360381019061006391906102e7565b6100e6565b604051610075919061032a565b60405180910390f35b61009860048036038101906100939190610378565b6100fb565b005b6100b460048036038101906100af91906102e7565b610195565b6040516100c191906103c5565b60405180910390f35b6100e460048036038101906100df9190610408565b6101b1565b005b6001602052805f5260405f205f915090505481565b805f808473ffffffffffffffffffffffffffffffffffffffff1673ffffffffffffffffffffffffffffffffffffffff1681526020019081526020015f205f6101000a81548160ff0219169083151502179055508173ffffffffffffffffffffffffffffffffffffffff167fa6625d2d26e786e2f473111bea4b2fcdbbf1863d883a2359989ce3a103d2972a60405160405180910390a25050565b5f602052805f5260405f205f915054906101000a900460ff1681565b60648111156101f5576040517f08c379a00000000000000000000000000000000000000000000000000000000081526004016101ec906104a0565b60405180910390fd5b8060015f8473ffffffffffffffffffffffffffffffffffffffff1673ffffffffffffffffffffffffffffffffffffffff1681526020019081526020015f20819055508173ffffffffffffffffffffffffffffffffffffffff167f16bf5e9c27e8fb3837dca08521258eaf9f8e21bb809d3dd7a1a4a00093c99a448260405161027d919061032a565b60405180910390a25050565b5f80fd5b5f73ffffffffffffffffffffffffffffffffffffffff82169050919050565b5f6102b68261028d565b9050919050565b6102c6816102ac565b81146102d0575f80fd5b50565b5f813590506102e1816102bd565b92915050565b5f602082840312156102fc576102fb610289565b5b5f610309848285016102d3565b91505092915050565b5f819050919050565b61032481610312565b82525050565b5f60208201905061033d5f83018461031b565b92915050565b5f8115159050919050565b61035781610343565b8114610361575f80fd5b50565b5f813590506103728161034e565b92915050565b5f806040838503121561038e5761038d610289565b5b5f61039b858286016102d3565b92505060206103ac85828601610364565b9150509250929050565b6103bf81610343565b82525050565b5f6020820190506103d85f8301846103b6565b92915050565b6103e781610312565b81146103f1575f80fd5b50565b5f81359050610402816103de565b92915050565b5f806040838503121561041e5761041d610289565b5b5f61042b858286016102d3565b925050602061043c858286016103f4565b9150509250929050565b5f82825260208201905092915050565b7f73636f7265206f7574206f662072616e676500000000000000000000000000005f82015250565b5f61048a601283610446565b915061049582610456565b602082019050919050565b5f6020820190508181035f8301526104b78161047e565b905091905056fea26469706673582212204af9392e449af81eb4acfce79f344ce22c5c2471ed4494a9756538f06164b70064736f6c63430008180033",
  "linkReferences": {},
  "deployedLinkReferences": {},
  "immutableReferences": {},
  "inputSourceName": "project/contracts/VeritasTrust.sol",
  "buildInfoId": "solc-0_8_24-e833c436d1700d2bed684a49eae29332111b3d08"
}